:020000040800F2
:1000000088060020CD010008790B0008E1030008F4
:10001000750B0008E3020008CD0C0008000000008A
:100020000000000000000000000000007D0B000840
:10003000E7020008000000007B0B0008690C0008C4
:10004000E7010008E7010008E7010008E7010008F0
:10005000E7010008E7010008F5020008E7010008D1
:100060009D030008E7010008E7010008E701000818
:10007000E7010008E7010008E7010008E7010008C0
:10008000E7010008E7010008E7010008E7010008B0
:10009000E7010008E7010008E7010008E7010008A0
:1000A000E7010008E7010008E7010008E701000890
:1000B000E7010008E7010008E7010008E701000880
:1000C000E7010008E7010008E7010008E701000870
:1000D000E7010008E7010008E7010008E701000860
:1000E00031030008E7010008E7010008E701000804
:1000F000E7010008E7010008E7010008E701000840
:10010000E7010008E7010008E7010008E70100082F
:10011000E7010008E7010008E7010008E70100081F
:10012000E7010008E7010008E7010008E70100080F
:1001300000F002F800F03AF80AA090E8000C8244BF
:100140008344AAF10107DA4501D100F02FF8AFF29C
:10015000090EBAE80F0013F0010F18BFFB1A43F0A5
:10016000010318477821000098210000103A24BFAD
:1001700078C878C1FAD8520724BF30C830C144BF0C
:1001800004680C607047000000230024002500264E
:10019000103A28BF78C1FBD8520728BF30C148BFEA
:1001A0000B6070471FB51FBD10B510BD00F063F8A0
:1001B0001146FFF7F7FF01F01BFA00F081F803B4D6
:1001C000FFF7F2FF03BC00F085F800000948804704
:1001D00009480047FEE7FEE7FEE7FEE7FEE7FEE729
:1001E000FEE7FEE7FEE7FEE704480549054A064B41
:1001F000704700006D0C00083101000888000020E5
:1002000088060020880200208802002010B5203ACD
:10021000C0F00B80B1E81850203AA0E81850B1E8BF
:100220001850A0E81850BFF4F5AF5FEA027C24BF75
:10023000B1E81850A0E8185044BF18C918C0BDE86C
:1002400010405FEA827C24BF51F8043B40F8043B35
:1002500008BF7047D20728BF31F8023B48BF11F8EA
:10026000012B28BF20F8023B48BF00F8012B704744
:10027000704770477047754600F028F8AE46050095
:100280006946534620F00700854618B020B5FFF7B1
:10029000ABFFBDE820404FF000064FF000074FF0E5
:1002A00000084FF0000B21F00701AC46ACE8C00994
:1002B000ACE8C009ACE8C009ACE8C0098D4670479D
:1002C0000446AFF300802046FFF779FF00487047EF
:1002D0002800002001491820ABBEFEE726000200DE
:1002E000704700BFFEE77047002100E0491C8142D3
:1002F000FCD3704700B500230EE0202009490860B8
:100300000948FFF7F1FF20200649091F0860064849
:10031000FFF7EAFF581CC3B20A2BEEDB01200349AA
:10032000086000BD1418014040420F001404014051
:1003300000B51548006880B11348006809280CD240
:1003400012488068C0F380200F490978491E884010
:100350000F49096808430E4908600B480068401CB3
:10036000094908600B4800680949096808430949B8
:1003700008600020064908600A20FFF7B5FF4FF427
:1003800000600549086000BD100000200010014019
:100390001C000020180000201404014000B50023B8
:1003A0000EE02020094908600948FFF79DFF202042
:1003B0000649091F08600648FFF796FF581CC3B29C
:1003C0000A2BEEDB04200349086000BD140C014039
:1003D00040420F001404014010B500F09FFB10BD17
:1003E00000BFFEE71348806940F0080011498861AA
:1003F0001148006820F470000F4908600846006842
:1004000040F4401008600B48806940F04000094902
:1004100088610A48006820F47000084908600846AE
:10042000006840F440100860202004491031086042
:100430007047000000100240000C0140001801400D
:10044000014601F007021202044B18684FF6FF0341
:10045000184003481043014B186070470CED00E052
:100460000000FA052848806940F01000264988619C
:100470002648406820F47040244948600846406897
:1004800040F4004048600846C06840F40060C8601E
:100490001D48806940F001001B4988611C480069C3
:1004A00020F470411A480161006940F40051184875
:1004B00001611848006840F400601649086015485A
:1004C0000C30006840F4006012490C31086095213E
:1004D000114801701148006840F480704FF0E0212D
:1004E000C1F804010848806940F01000064988619D
:1004F0000648406820F47060044948600846406837
:1005000040F4006048607047001002400010014055
:10051000000001400004014028E400E004E100E0A4
:1005200000204FF0E0210861034848610846006957
:1005300040F00300086170478F5F0100F0B5074687
:100540000C46059D00262A2000F0F4F9201200F048
:10055000EBF9E0B200F0E8F91119491EC1F30F20E0
:1005600000F0E2F91119491EC8B200F0DDF92B20A4
:1005700000F0E0F9181200F0D7F9D8B200F0D4F981
:10058000E918491EC1F30F2000F0CEF9E918491E01
:10059000C8B200F0C9F92C2000F0CCF900BF03E08C
:1005A000384600F0C1F9761C02FB05F0B042F7D8DE
:1005B000F0BD000000B55548406940F480705349D3
:1005C00048610846806940F00800886108468069F3
:1005D00040F0200088610846806940F04000886152
:1005E0000846806940F4807088614948006820F0BE
:1005F0000F00474908600846006840F003000860A3
:100600004448006844490840424908600846006878
:10061000424908433F490860081F006800F0FF2076
:10062000091F08600846006840F0BB1008603C489D
:10063000006800203A4908600846006840F0BB3076
:100640000860081F006820F07040091F0860084615
:10065000006840F0304008603248406820F4702064
:10066000304948600846406840F4302048600846F9
:10067000006820F00F0008600846006840F00B009A
:10068000086000204FF020418861C8612649086059
:100690004FF02040806940F480504FF02041886145
:1006A0000846806940F4804088610846806940F0CF
:1006B000100088610846C069C8610846C06940F0FA
:1006C0000100C8610846C06940F47060C8611648FE
:1006D0000068C1F81C0114480068C1F81C010846F4
:1006E000D0F81C0140F44070C1F81C010846806934
:1006F00040F00100886100F019F8054810300068EA
:1007000040F0010002491031086000BD00100240B5
:10071000000C01400414014000F0FF00BB0B00BBC3
:1007200004180140002001401C0100A000B5012078
:1007300000F000F9112000F0FDF83A2000F0FAF87E
:10074000552000F0F1F8292000F0F4F8362000F0F0
:10075000F1F8CA2000F0E8F800BD00002DE9F04FE4
:1007600004460D4616469A46DDF8249010224FF0B6
:10077000080B202E01DB7F2E01DDBDE8F08FA6F1F6
:100780002000C6B22A2000F0D5F8201200F0CCF8E4
:10079000E0B200F0C9F80BEB0401491EC1F30F20D1
:1007A00000F0C2F80BEB0401491EC8B200F0BCF81F
:1007B0002B2000F0BFF8281200F0B6F8E8B200F0E5
:1007C000B3F85119491EC1F30F2000F0ADF85119CB
:1007D000491EC8B200F0A8F82C2000F0ABF80023A6
:1007E00027E04FF000081DE0002715E0154800EB5A
:1007F0000610012101EB4701C91A405C40FA08F0DC
:1008000000F0010018B1504600F08EF802E04846B2
:1008100000F08AF8781CC7B25F45E7DB08F10100F9
:1008200000F0FF0802EBD271B8EB610FDCDB581C63
:10083000C3B2D11702EB5171B3EBE10FD1DB00BFB3
:100840009BE700006C1800082DE9F04F04460D46A8
:1008500017469A46DDF82490102293460A2F01DBB2
:10086000BDE8F08F2A2000F065F8201200F05CF857
:10087000E0B200F059F80BEB0401491EC1F30F2060
:1008800000F052F80BEB0401491EC8B200F04CF81E
:100890002B2000F04FF8281200F046F8E8B200F0E4
:1008A00043F85119491EC1F30F2000F03DF85119CA
:1008B000491EC8B200F038F82C2000F03BF80023A5
:1008C00027E04FF000081DE0002615E0154800EB7A
:1008D0004710012101EB4601C91A405C40FA08F0BB
:1008E00000F0010018B1504600F01EF802E0484642
:1008F00000F01AF8701CC6B25E45E7DB08F1010093
:1009000000F0FF0802EBD271B8EB610FDCDB581C82
:10091000C3B2D11702EB5171B3EBE10FD1DB00BFD2
:100920009EE700005C1E0008014908807047000037
:100930000008006C0149088070470000FE07006C49
:1009400007210020234A5268234B1A40214B5A604A
:100950001A461268214B1A401E4B1A601A4612683A
:1009600042F480321A6000BF1A4A1268520C002A00
:10097000FAD04FF48062174B5A601A46526842EA26
:1009800081425A601A46526842F480325A60144AD0
:10099000126842F03202124B1A600E4A126842F09C
:1009A00080720C4B1A6000BF0A4A1268520E002A6D
:1009B000FAD0084A526842F00202064B5A6005E03B
:1009C000044A5268C2F3870000F003000228F7D1FE
:1009D00070470000001002400000FFF8FFFFF6FE25
:1009E000002002402148806940F040001F49886192
:1009F0001F48006820F470601D49086008460068C0
:100A000040F4006008601A480C30006840F00400B0
:100A100017490C3108601548806940F001001349FE
:100A200088611448806820F4706012498860084624
:100A3000806840F4806088600F48006840F00400DF
:100A40000D4908600C480C30006840F004000A4969
:100A50000C3108606521094801700948006840F4BC
:100A600080704FF0E021C1F8000170470010024093
:100A700000180140000001400004014008E400E0CB
:100A800000E100E01F48806940F004001D498861D2
:100A90001D48006820F00F001B49086008460068E8
:100AA00040F00800086018480C30006816490C3106
:100AB00008601448806940F00100124988611348B9
:100AC000806820F00F0011498860084680688860BF
:100AD0000F48006840F001000D4908600C480C30D8
:100AE000006840F001000A490C310860752109488E
:100AF00001700948006840F040004FF0E021C1F863
:100B00000001704700100240000801400000014051
:100B10000004014008E400E000E100E008B54FF403
:100B2000A0700023F022194600904FF4FC60FFF7FC
:100B300005FD012000F0A4FA022000F0A9F903202D
:100B400000F09EFA042000F0A3F9052000F0C0F8A0
:100B5000062000F079FB072000F092FA082000F050
:100B60008FFA092000F094F90148FFF7BDFB08BD9A
:100B700040420F0000BFFEE770477047704710B556
:100B800000F002F810BD00000CB5002001900090AC
:100B90003348006840F480303149086000BF304875
:100BA000006800F4003000900198401C019000980B
:100BB00018B90198B0F5A06FF1D12948006800F488
:100BC000003010B10120009001E00020009000985A
:100BD000012843D12348006840F0100021490860F3
:100BE0000846006820F0030008600846006840F0EE
:100BF000020008601A484068194948600846406881
:100C000048600846406840F4806048600846406894
:100C100020F47C1048600846406840F4E8104860C2
:100C20000846006840F08070086000BF0C4800680B
:100C300000F000700028F9D00948406820F0030057
:100C4000074948600846406840F00200486000BF1D
:100C50000348406800F00C000828F9D10CBD0000E2
:100C600000100240002002407047000010B51348F9
:100C7000006840F0010011490860084640681049CA
:100C800008400E494860084600680E4908400B4974
:100C900008600846006820F4802008600846406824
:100CA00020F4FE0048604FF41F008860FFF767FFE4
:100CB0004FF000600449086010BD000000100240C1
:100CC0000000FFF8FFFFF6FE08ED00E000BFFEE7C2
:100CD0002DE9F041B6B006464FF4C877B846D022A9
:100CE0006A4902A8FFF792FA012E02D146274FF077
:100CF0005008022E02D18C274FF05008032E02D14B
:100D0000D2274FF05008042E02D146274FF0A008FA
:100D1000052E02D18C274FF0A008062E02D1D22733
:100D20004FF0A008072E02D146274FF0F008082EFA
:100D300002D18C274FF0F008092E02D1D2274FF0B4
:100D4000F00800249BE0002594E005EB850000EB13
:100D5000C50002A90844005D01280FD103200090BE
:100D600005EB4500A8EB000083B204EB4400381A01
:100D700081B2032247F6EF30FFF7E0FB05EB850079
:100D800000EBC50002A90844005D02280ED1032033
:100D9000009005EB4500A8EB000083B204EB440093
:100DA000381A81B203220020FFF7C8FB05EB85004B
:100DB00000EBC50002A90844005D03280ED1009095
:100DC00005EB4500A8EB000083B204EB4400381AA1
:100DD00081B203224FF47840FFF7B0FB05EB8500AA
:100DE00000EBC50002A90844005D04280FD10320D0
:100DF000009005EB4500A8EB000083B204EB440033
:100E0000381A81B203224FF6E070FFF797FB05EB2B
:100E1000850000EBC50002A90844005D05280FD13C
:100E20000320009005EB4500A8EB000083B204EB23
:100E30004400381A81B2032247F6E010FFF77EFB28
:100E400005EB850000EBC50002A90844005D78B9F8
:100E50000320009005EB4500A8EB000083B204EBF3
:100E60004400381A81B203224FF4FC60FFF766FB9E
:100E7000681CC5B2102DFFF668AF601CC4B20D2C03
:100E8000FFF661AF36B0BDE8F08100000C2200082B
:100E90002DE9F041B6B006464FF4C877B846D022E7
:100EA000764902A8FFF7B2F9012E02D146274FF08A
:100EB0005008022E02D18C274FF05008032E02D189
:100EC000D2274FF05008042E02D146274FF0A00839
:100ED000052E02D18C274FF0A008062E02D1D22772
:100EE0004FF0A008072E02D146274FF0F008082E39
:100EF00002D18C274FF0F008092E02D1D2274FF0F3
:100F0000F0080024B4E00025ADE005EB850000EB1F
:100F1000C50002A90844005D01280FD103200090FC
:100F200005EB4500A8EB000083B204EB4400381A3F
:100F300081B2032247F6EF30FFF700FB05EB850097
:100F400000EBC50002A90844005D02280ED1032071
:100F5000009005EB4500A8EB000083B204EB4400D1
:100F6000381A81B203220020FFF7E8FA05EB85006A
:100F700000EBC50002A90844005D03280ED10090D3
:100F800005EB4500A8EB000083B204EB4400381ADF
:100F900081B203224FF47840FFF7D0FA05EB8500C9
:100FA00000EBC50002A90844005D04280FD103200E
:100FB000009005EB4500A8EB000083B204EB440071
:100FC000381A81B203224FF6E070FFF7B7FA05EB4B
:100FD000850000EBC50002A90844005D05280FD17B
:100FE0000320009005EB4500A8EB000083B204EB62
:100FF0004400381A81B2032247F6E010FFF79EFA48
:1010000005EB850000EBC50002A90844005D78B936
:101010000320009005EB4500A8EB000083B204EB31
:101020004400381A81B203224FF4FC60FFF786FABD
:1010300005EB850000EBC50002A90844005D062809
:101040000FD10320009005EB4500A8EB000083B210
:1010500004EB4400381A81B2032240F2FF70FFF71C
:101060006DFA681CC5B2102DFFF64FAF601CC4B2FC
:101070000D2CFFF648AF36B0BDE8F0816C200008BB
:101080002DE9F041B6B006464FF4C877B846D022F5
:101090006C4902A8FFF7BAF8012E02D146274FF09B
:1010A0005008022E02D18C274FF05008032E02D197
:1010B000D2274FF05008042E02D146274FF0A00847
:1010C000052E02D18C274FF0A008062E02D1D22780
:1010D0004FF0A008072E02D146274FF0F008082E47
:1010E00002D18C274FF0F008092E02D1D2274FF001
:1010F000F0080A2E02D1D2274FF49B7800249BE0FF
:10110000002594E005EB850000EBC50002A908442A
:10111000005D01280FD10320009005EB4500A8EBEE
:10112000000083B204EB4400381A81B2032247F670
:10113000EF30FFF703FA05EB850000EBC50002A9CD
:101140000844005D02280ED10320009005EB450005
:10115000A8EB000083B204EB4400381A81B20322EA
:101160000020FFF7EBF905EB850000EBC50002A9B5
:101170000844005D03280ED1009005EB4500A8EB64
:10118000000083B204EB4400381A81B203224FF40A
:101190007840FFF7D3F905EB850000EBC50002A905
:1011A0000844005D04280FD10320009005EB4500A2
:1011B000A8EB000083B204EB4400381A81B203228A
:1011C0004FF6E070FFF7BAF905EB850000EBC500BC
:1011D00002A90844005D05280FD10320009005EB0B
:1011E0004500A8EB000083B204EB4400381A81B23A
:1011F000032247F6E010FFF7A1F905EB850000EBAD
:10120000C50002A90844005D78B90320009005EBF1
:101210004500A8EB000083B204EB4400381A81B209
:1012200003224FF4FC60FFF789F9681CC5B2102D4A
:10123000FFF668AF601CC4B20D2CFFF661AF36B08C
:10124000BDE8F0819C1F00082DE9F041B6B00446CE
:101250004FF4C877B846D022384902A8FEF7D6FF27
:10126000012C02D146274FF05008022C02D18C27C6
:101270004FF05008032C02D1D2274FF05008042C15
:1012800002D146274FF0A008052C02D18C274FF041
:10129000A008062C02D1D2274FF0A008072C02D1BB
:1012A00046274FF0F008082C02D18C274FF0F008A9
:1012B000092C02D1D2274FF0F008002538E0002693
:1012C00032E006EB860000EBC60002A90844405D50
:1012D00005280FD10320009006EB4600A8EB000084
:1012E00083B205EB4500381A81B2032247F6E010BD
:1012F000FFF724F906EB860000EBC60002A90844BC
:10130000405D78B90320009006EB4600A8EB000092
:1013100083B205EB4500381A81B203224FF4FC601A
:10132000FFF70CF9701CC6B2102ECADB681CC5B2E0
:101330000D2DC4DB36B0BDE8F08100003C21000873
:1013400010B5AAB081A207CA27AB07C382A2D2E90F
:1013500000109268CDE92502249182A2D2E9001002
:101360009268CDE92202219181A2D2E9001092680F
:10137000CDE91F021E9181A000681D9080A0006829
:101380001C9080A30FCB18AC0FC41C2281A111A804
:10139000FEF73CFF182286A10BA8FEF737FF1422A8
:1013A00089A106A8FEF732FF14228CA101A8FEF73E
:1013B0002DFF00244FF4A0700023F0221946009066
:1013C0004FF4FC60FFF7BAF800BF11E04FF4FC6087
:1013D00027A900900A5D322101EBC40188B20023E5
:1013E0004FF48C71FFF7BAF90A20FFF749FE641C2D
:1013F0000C2CEBDB00241AE04FF4FC6024A90090D5
:101400000A5D322101EBC40188B20023DC21FFF721
:10141000A5F94FF4FC6021A900900A5D322101EB8F
:10142000C40188B20023C821FFF798F9641C0A2C74
:10143000E2DB00241AE04FF4FC601DA900900A5D75
:10144000962101EB041188B20023DC21FFF7FCF99F
:101450004FF4FC601CA900900A5D962101EB041179
:1014600088B20023C821FFF7EFF9641C032CE2DBEC
:1014700000240DE04FF4FC601EA900900A5D962147
:1014800001EB041188B20023B421FFF7DDF9641CDD
:101490000A2CEFDB00240DE04FF4FC6018A900904B
:1014A0000A5D502101EBC40188B20023A021FFF79F
:1014B00055F9641C0C2CEFDB00240DE04FF4FC60AC
:1014C0000BA900900A5D142101EBC40188B200232E
:1014D0007821FFF743F9641C162CEFDB00240DE0A4
:1014E0004FF4FC6011A900900A5D142101EBC401C6
:1014F00088B200238C21FFF731F9641C192CEFDB33
:1015000000240DE04FF4FC6006A900900A5D142150
:1015100001EBC40188B200236421FFF71FF9641CAA
:10152000142CEFDB00240DE04FF4FC6001A90090C7
:101530000A5D142101EBC40188B200235021FFF79A
:101540000DF9641C112CEFDB2AB010BD77686163C4
:101550006B2061206D6F6C65313135353133313140
:101560003535000031313535313235313236000014
:1015700047524F55503A20413136000000010200D9
:1015800003040500496E737472756374696F6E733A
:101590003A0000005072657373206B657920312D1D
:1015A0003920746F20686974206D6F6C65000000CD
:1015B00049662068697420426F6D622C2047616D16
:1015C00065204F7665720000507265737320456E1A
:1015D00074657220746F20737461727450726573D5
:1015E000732A20746F205265737461727400000056
:1015F000FFF7A6F9FEF7F6FE0620FEF721FFFEF73D
:101600008FFFFEF7D7FFFFF7EDF9FFF73BFAFEF785
:1016100029FF20208D4908608D490860FFF790FE62
:1016200012E18C480068401C8A4908608A480068BA
:1016300020B9FFF785FE01208749086087480068C8
:101640000B28EDD38648007800287DD185480068B6
:10165000F02802D1012082490870824800687C2865
:1016600008D120207A49091D086000207C490870B3
:10167000FFF766FE7B4800685A2808D1202073498E
:10168000091D0860002076490870FEF7A5FE754820
:101690000068692806D120206C49091D08600020D7
:1016A0006F4908706F480068722806D1202067498A
:1016B000091D086000206A4908706A4800687A2895
:1016C00006D120206149091D086000206449087086
:1016D000644800686B2806D120205C49091D086019
:1016E00000205F4908705F480068732806D12020F9
:1016F0005649091D0860002059490870594800687A
:10170000742806D120205149091D08600020544941
:101710000870544800686C2806D120204B49091DE8
:10172000086000204E4908704E480068752806D1B0
:1017300020204649091D0860002049490870494891
:1017400000687D2877D100E007E020203F49091D8F
:1017500008600020424908706DE0424800687C281B
:1017600005D120203A49086000203D4908703D48D5
:1017700000685A2805D120203449086000203849E3
:10178000087038480068692805D120202F49086072
:1017900000203349087033480068722805D12020A2
:1017A0002A49086000202E4908702E4800687A28CF
:1017B00005D12020254908600020294908702948C2
:1017C00000686B2805D120202049086000202449AA
:1017D000087024480068732805D120201B49086040
:1017E00000201F4908701F480068742805D1202078
:1017F0001649086000201A4908701A4800686C28C9
:1018000005D12020114908600020154908701548AD
:101810000068752805D120200C4908600020104977
:101820000870104800687D2805D12020074908600D
:1018300000200B49087000200A4908600749086029
:101840004FF4006008490860EBE600001018014002
:10185000100C0140240000200C000020100000208B
:1018600020000020180000201404014000000000A7
:101870000000000000000000000000000000000068
:1018800000001FCC000C0000000000000000080059
:10189000300060000800300060000000022003FCFF
:1018A0001E20022003FC1E200220000000000E1853
:1018B00011043FFF10840C78000000000F0010841A
:1018C0000F3800C0077818840078000000780F8473
:1018D00010C411240E9800E4008400080800680079
:1018E0007000000000000000000000000000000088
:1018F000000007E018182004400200000000400229
:101900002004181807E00000000000000240024018
:1019100001800FF001800240024000000080008042
:1019200000800FF800800080008000000001000DA2
:10193000000E000000000000000000000000008019
:101940000080008000800080008000800000000C8B
:10195000000C000000000000000000000000000675
:10196000001800600180060018002000000007F049
:10197000080810041004080807F00000000008041C
:1019800008041FFC000400040000000000000E0C0E
:1019900010141024104411840E0C000000000C18C8
:1019A00010041104110412880C700000000000E003
:1019B0000320042408241FFC0024000000001F98BA
:1019C000108411041104108810700000000007F04A
:1019D00008881104110418880070000000001C0021
:1019E000100010FC13001C001000000000000E3856
:1019F00011441084108411440E38000000000700C8
:101A0000088C10441044088807F000000000000013
:101A10000000030C030C00000000000000000000A8
:101A2000000101060000000000000000000000802E
:101A300001400220041008081004000002200220C7
:101A400002200220022002200220000000001004D8
:101A500008080410022001400080000000000E0071
:101A60001200100C106C10800F00000003E00C1826
:101A700013E4142417C4082807D000000004003C15
:101A800003C41C40074000E4001C000410041FFCB9
:101A90001104110411040E880070000003E00C18FA
:101AA00010041004100410081C10000010041FFC87
:101AB000100410041004080807F0000010041FFCB4
:101AC0001104110417C410040818000010041FFCAE
:101AD0001104110017C010000800000003E00C18EA
:101AE0001004100410441C780040000010041FFC77
:101AF00010840080008010841FFC1004000010047B
:101B000010041FFC1004100400000000000300017A
:101B1000100110011FFE10001000000010041FFC37
:101B2000110403801464181C1004000010041FFC2E
:101B30001004000400040004000C000010041FFC4A
:101B40001F0000FC1F001FFC1004000010041FFCFD
:101B50000C04030000E010181FFC100007F0080838
:101B6000100410041004080807F0000010041FFC03
:101B700010841080108010800F00000007F00818FB
:101B800010241024101C080A07F2000010041FFC87
:101B90001104110011C011300E0C000400000E1CC5
:101BA00011041084108410441C3800001800100028
:101BB00010041FFC100410001800000010001FF893
:101BC00010040004000410041FF8100010001E0090
:101BD00011E0001C007013801C0010001FC0103C9E
:101BE00000E01F0000E0103C1FC000001004180CB3
:101BF000163401C001C01634180C100410001C006B
:101C0000130400FC13041C00100000000804101C46
:101C10001064108413041C0410180000000000005D
:101C200000007FFE40024002400200000000300041
:101C30000C0003800060001C000300000000400254
:101C4000400240027FFE0000000000000000000093
:101C50002000400040004000200000000001000182
:101C6000000100010001000100010001000040002E
:101C7000400020000000000000000000000000986C
:101C8000012401440144014400FC000410001FFC35
:101C9000008801040104008800700000000000704A
:101CA00000880104010401040088000000000070A5
:101CB00000880104010411081FFC0004000000F862
:101CC000014401440144014400C800000000010433
:101CD00001040FFC1104110411001800000000D6CB
:101CE00001290129012901C90106000010041FFC76
:101CF000008401000100010400FC00040000010454
:101D0000190419FC00040004000000000000000396
:101D100000010101190119FE0000000010041FFC60
:101D20000024004001B4010C010400000000100474
:101D300010041FFC0004000400000000010401FC6A
:101D40000104010001FC0104010000FC010401FC8C
:101D5000008401000100010400FC0004000000F800
:101D6000010401040104010400F80000010101FF65
:101D7000008501040104008800700000000000706C
:101D8000008801040104010501FF000101040104B0
:101D900001FC00840104010001800000000000CC6F
:101DA0000124012401240124019800000000010005
:101DB000010007F80104010400000000010001F81F
:101DC000000400040004010801FC0004010001807B
:101DD0000170000C001001600180010001F0010C95
:101DE000003001C00030010C01F0010000000104CE
:101DF000018C00740170018C01040000010101815B
:101E00000171000E001801600180010000000184D2
:101E1000010C013401440184010C000000000000A9
:101E20000000000001003EFC4002400200000000F3
:101E300000000000FFFF0000000000000000400262
:101E400040023EFC010000000000000000006000B5
:101E500080008000400040002000200000201E4242
:101E600022AA433E86AA034240205C006000400054
:101E70007DF0000400027FFE00000000404140525F
:101E80005054577855D055525551F55E5540555FD1
:101E900055D257525052405F4040000000020102AC
:101EA0004202443E4DA25A226D3E48A24022403E8C
:101EB00050226A22473E0002000200020002110482
:101EC00008880450004002400ABF1AA517251FFFCA
:101ED000272546A50ABF024000400000020004007A
:101EE000080017FF200040000200120612EA7EAA36
:101EF00012BF12EA1E02020002000000002007FFCB
:101F00000A2012A4222003FF00200020080009FF5D
:101F10002900390009FF0801080100000000000045
:101F200000000000000000000000000000000000B1
:101F300000000000000000000000000000000000A1
:101F40000000000000000000000000000000000091
:101F50000000000000000000000000000000000081
:101F60000000000000000000000000000000000071
:101F70000000000000000000000000000000000061
:101F80000000000000000000000000000000000051
:101F90000000000000000000000000000000000041
:101FA000010101010100000000000000010404041F
:101FB00004040100000000000104040404040404FB
:101FC00001000000010404040404040404040100EA
:101FD00000010404020404040204040100000104DA
:101FE00004020404040204040100000104040404C3
:101FF00004040404040100000104040404030404B0
:1020000004040100000104040404040404040401A1
:102010000000010404040404040404040100000199
:102020000404040404040404040100000505050577
:102030000505050505050500050505050505050555
:102040000505050505050505050505050505050540
:102050000505050505050505050505050505050035
:102060000505050505050505050505000000000039
:10207000010101010100000000000000010404044E
:10208000040401000000000001040404040404042A
:102090000100000001040404040404040404010019
:1020A0000001040204040404040204010000010409
:1020B00004020404040204040100000104020404F4
:1020C00004040402040100000104040403030304E3
:1020D00004040100000106040403030304040601D0
:1020E00000000604040403030304040406000601BC
:1020F00004040404040404040401060005050505A1
:102100000505050505050500050505050505050584
:10211000050505050505050505050505050505056F
:102120000505050505050505050505050505050064
:102130000505050505050505050505000000000068
:10214000000000000000000000000000000000008F
:10215000000000000000000000000000000000007F
:10216000000000000000000000000000000000006F
:10217000000000000000000000000000000000005F
:10218000000000000000000000000000000000004F
:10219000000000000000000000000000000000003F
:1021A000000000000000000000000000000000002F
:1021B000000000000000000000000000000000001F
:1021C00000000000000000000000000005050505FB
:1021D00005050505050505000505050505050505B4
:1021E000050505050505050505050505050505059F
:1021F0000505050505050505050505050505050094
:102200000505050505050505050505000000000097
:1022100000000000000003030300000000000000B5
:10222000000001030303000000000202020201009B
:102230000000000000000202020202020200000090
:102240000000020202020202020202000000020278
:102250000202020202020202020000020202020262
:102260000202020202020000020202020202020252
:102270000202020000020202020202020202020242
:102280000000020202020202020202020200000236
:10229000020202020202020202020000050202021F
:1022A0000202020202020500050505020202020204
:1022B00002020505050505050502020202050505E0
:1022C00005050505050505050505050505050500C3
:1022D000050505050505050505050500FC220008A1
:1022E00000000020280000006C01000824230008E2
:1022F000280000206006000088010008000000009F
:1023000000000000000000000000000000000000CD
:10231000204E00000000000000000000000000004F
:0423200000000000B9
:04000005080001CD21
:00000001FF
